:100000000C9434000C94C6000C94DC000C943E005C
:100010000C943E000C943E000C943E000C943E0068
:100020000C943E000C943E000C943E000C943E0058
:100030000C943E000C943E000C943E000C943E0048
:100040000C943E000C943E000C943E000C943E0038
:100050000C943E000C943E000C943E000C943E0028
:100060000C943E000C943E0011241FBECFEFD8E04C
:10007000DEBFCDBF0E94DE000C94F5000C940000A2
:1000800029B136B1832F90E0422F407427FD16C06E
:100090005C98411127C025FF74C04D99FECF29B14E
:1000A00046B1322F307C342B3EBD0DB407FEFDCF60
:1000B0003EB5009709F468C00197EDCF411134C0F7
:1000C000932F96958795882787955C9825FF29C05B
:1000D0004D99FECF29B136B1422F4074432B842B6A
:1000E00027FFD9CF4FEF4EBD422F407C4C604BB91C
:1000F00040ED4AB938B93FE337B95FEF0DB407FEB9
:10010000FDCF4EB5342F307C3C6025FF36C04D9975
:10011000FECF3BB948B929B1009791F101975EBD77
:10012000EDCF4D9BFECFD6CF959587958F7139F446
:1001300030FF03C02A985C98FFCF2A9AFCCF813009
:10014000A1F421985C9825FF0BC04D99FECF80ED5E
:100150008AB98FE387B94B9906C081E088B9ECCFA3
:100160004D9BFECFF4CF18B8E7CF823029F780E55A
:1001700030FF83E58CBD5C98DFCF4D9BFECFC9CFB0
:10018000FFCF4D9BFECF8BCFFFCFFFCF4A9B0AC047
:1001900080E18AB98CE18BB917B818B8E99A85EC77
:1001A00090E003C0E99880E490E0EEB72DB7FE2F11
:1001B000E22F918382831895219A18958CE284B955
:1001C00084E085B983E58CBD8DB581608DBD80E10E
:1001D0008AB98CE18BB917B818B885E080936900AB
:0E01E00083E08CBB8DBB7894FFCFF894FFCFEB
:00000001FF
