:100000001AC0AAC0BFC01FC01EC01DC01CC01BC0DC
:100010001AC019C018C017C016C015C014C013C02C
:1000200012C011C010C00FC00EC00DC00CC00BC05C
:100030000AC009C008C011241FBECFEFD2E0DEBF46
:10004000CDBFA2D0B7C0DCCF29B136B1832F90E0AD
:10005000422F407427FD16C05C98411127C025FF30
:1000600076C04D99FECF29B146B1322F307C342B6A
:100070003EBD0DB407FEFDCF3EB5009709F46AC042
:100080000197EDCF411134C0932F9695879588271E
:1000900087955C9825FF29C04D99FECF29B136B1CF
:1000A000422F4074432B842B27FFD9CF4FEF4EBDF7
:1000B000422F407C4C604BB940ED4AB938B93FE320
:1000C00037B95FEF0DB407FEFDCF4EB5342F307C4E
:1000D0003C6025FF38C04D99FECF3BB948B929B1E6
:1000E0000097A1F101975EBDEDCF4D9BFECFD6CF1E
:1000F000959587958F7149F485B130FF04C08A7F4B
:1001000085B95C98FFCF8560FBCF8130A1F4219841
:100110005C9825FF0BC04D99FECF80ED8AB98FE327
:1001200087B94B9906C081E088B9ECCF4D9BFECFD3
:10013000F4CF18B8E7CF823029F780E530FF83E5A8
:100140008CBD5C98DFCF4D9BFECFC7CFFFCF4D9BC3
:10015000FECF89CFFFCFFFCF4A9B0AC080E18AB98B
:100160008CE18BB917B818B8E99A8BEA90E003C014
:10017000E99884E290E0EEB72DB7FE2FE22F91834D
:1001800082831895219A18958DE284B995E095B9E6
:1001900083E58CBD8DB581608DBD80E18AB98CE130
:1001A0008BB917B818B89093690083E08CBB8DBBEE
:0801B0007894FFCFF894FFCF13
:00000001FF
